:1000000012C024C023C022C021C020C01FC01EC0F7
:100010001DC01CC01BC01AC019C018C017C016C014
:1000200015C014C013C011241FBECFE5D4E0DEBF3D
:10003000CDBF10E0A0E6B0E0EEE4F1E002C0059034
:100040000D92AC3AB107D9F707D07FC0D9CF8FEF67
:1000500081BB80E184BB0895DF93CF93CDB7DEB73A
:1000600028970FB6F894DEBF0FBECDBF8FEF81BBD0
:1000700080E184BB809160009091610020916000DC
:10008000309161009E838D8338872F831A82198275
:1000900081E090E09C838B8320E030E0BE016F5FC5
:1000A0007F4F40ED57E018C0F901EE0FFF1FDF0151
:1000B000A855BF4F8D919C9184BBE60FF71F84819B
:1000C000958182BB89819A8101969A838983CA012D
:1000D0000197F1F72F5F3F4F223031052CF38981D3
:1000E0009A81895E934074F18B819C810A975CF4BC
:1000F0008F8198859E838D83EB81FC81EE0FFF1F9E
:10010000E05AFF4F0EC08B819C810A979CF08F8133
:1001100098859E838D83EB81FC81EE0FFF1FE05A53
:10012000FF4F8081918198878F838B819C8101967D
:100130009C838B838B819C81849714F01C821B820F
:0E0140001A82198220E030E0C7CFF894FFCF7A
:10014E003F0006005B004F0066006D007D0007005B
:10015E007F00670077007C0039005E007900710037
:10016E003D00740030001E00750038001500370089
:10017E003F007300670033006D0078003E001C00E6
:0C018E002A0076006E005B0010002000CC
:00000001FF
