:100000000C942A000C9434000C9434000C943400AA
:100010000C9434000C9434000C9434000C94340090
:100020000C9434000C9434000C9434000C94340080
:100030000C9434000C9434000C9434000C94340070
:100040000C9434000C9434000C9434000C94340060
:100050000C94340011241FBECFE5D4E0DEBFCDBF29
:100060000E9439000C944E000C9400008FEF81BB6D
:1000700008958FEF81BB81E090E0009711F481E05B
:1000800090E082BB2FEF30E742E02150304040400B
:10009000E1F700C00000880F991FEFCFF894FFCF61
:00000001FF
